{
  "_format": "hh-sol-artifact-1",
  "contractName": "CrowdFunding",
  "sourceName": "contracts/crowdFunding.sol",
  "abi": [
    {
      "inputs": [
        {
          "internalType": "address",
          "name": "_owner",
          "type": "address"
        },
        {
          "internalType": "string",
          "name": "_title",
          "type": "string"
        },
        {
          "internalType": "string",
          "name": "_description",
          "type": "string"
        },
        {
          "internalType": "uint256",
          "name": "_target",
          "type": "uint256"
        },
        {
          "internalType": "uint256",
          "name": "_deadline",
          "type": "uint256"
        }
      ],
      "name": "Funding",
      "outputs": [
        {
          "internalType": "uint256",
          "name": "",
          "type": "uint256"
        }
      ],
      "stateMutability": "nonpayable",
      "type": "function"
    },
    {
      "inputs": [
        {
          "internalType": "uint256",
          "name": "",
          "type": "uint256"
        }
      ],
      "name": "campaigns",
      "outputs": [
        {
          "internalType": "address",
          "name": "owner",
          "type": "address"
        },
        {
          "internalType": "string",
          "name": "title",
          "type": "string"
        },
        {
          "internalType": "string",
          "name": "description",
          "type": "string"
        },
        {
          "internalType": "uint256",
          "name": "target",
          "type": "uint256"
        },
        {
          "internalType": "uint256",
          "name": "deadline",
          "type": "uint256"
        },
        {
          "internalType": "uint256",
          "name": "amountCollected",
          "type": "uint256"
        },
        {
          "internalType": "bool",
          "name": "paidOut",
          "type": "bool"
        }
      ],
      "stateMutability": "view",
      "type": "function"
    },
    {
      "inputs": [],
      "name": "numberOfCampaigns",
      "outputs": [
        {
          "internalType": "uint256",
          "name": "",
          "type": "uint256"
        }
      ],
      "stateMutability": "view",
      "type": "function"
    },
    {
      "inputs": [
        {
          "internalType": "uint256",
          "name": "_id",
          "type": "uint256"
        }
      ],
      "name": "payment",
      "outputs": [],
      "stateMutability": "nonpayable",
      "type": "function"
    }
  ],
  "bytecode": "0x60806040526000600155348015601457600080fd5b5061107a806100246000396000f3fe608060405234801561001057600080fd5b506004361061004c5760003560e01c806307ca140d14610051578063141961bc1461006f5780636b0f5b26146100a55780638b3c99e3146100d5575b600080fd5b6100596100f1565b60405161006691906105e2565b60405180910390f35b6100896004803603810190610084919061063d565b6100f7565b60405161009c9796959493929190610756565b60405180910390f35b6100bf60048036038101906100ba9190610934565b610276565b6040516100cc91906105e2565b60405180910390f35b6100ef60048036038101906100ea919061063d565b610386565b005b60015481565b60006020528060005260406000206000915090508060000160009054906101000a900473ffffffffffffffffffffffffffffffffffffffff169080600101805461014090610a16565b80601f016020809104026020016040519081016040528092919081815260200182805461016c90610a16565b80156101b95780601f1061018e576101008083540402835291602001916101b9565b820191906000526020600020905b81548152906001019060200180831161019c57829003601f168201915b5050505050908060020180546101ce90610a16565b80601f01602080910402602001604051908101604052809291908181526020018280546101fa90610a16565b80156102475780601f1061021c57610100808354040283529160200191610247565b820191906000526020600020905b81548152906001019060200180831161022a57829003601f168201915b5050505050908060030154908060040154908060050154908060060160009054906101000a900460ff16905087565b600080600080600154815260200190815260200160002090504283116102d1576040517f08c379a00000000000000000000000000000000000000000000000000000000081526004016102c890610ab9565b60405180910390fd5b868160000160006101000a81548173ffffffffffffffffffffffffffffffffffffffff021916908373ffffffffffffffffffffffffffffffffffffffff160217905550858160010190816103259190610c85565b50848160020190816103379190610c85565b50838160030181905550828160040181905550600081600501819055506001600081548092919061036790610d86565b91905055506001805461037a9190610dce565b91505095945050505050565b600080600083815260200190815260200160002090508060000160009054906101000a900473ffffffffffffffffffffffffffffffffffffffff1673ffffffffffffffffffffffffffffffffffffffff163373ffffffffffffffffffffffffffffffffffffffff161461042e576040517f08c379a000000000000000000000000000000000000000000000000000000000815260040161042590610e74565b60405180910390fd5b8060060160009054906101000a900460ff1615610480576040517f08c379a000000000000000000000000000000000000000000000000000000000815260040161047790610ee0565b60405180910390fd5b600081600501549050600081116104cc576040517f08c379a00000000000000000000000000000000000000000000000000000000081526004016104c390610f4c565b60405180910390fd5b6000826005018190555060018260060160006101000a81548160ff02191690831515021790555060008260000160009054906101000a900473ffffffffffffffffffffffffffffffffffffffff1673ffffffffffffffffffffffffffffffffffffffff168260405161053d90610f9d565b60006040518083038185875af1925050503d806000811461057a576040519150601f19603f3d011682016040523d82523d6000602084013e61057f565b606091505b50509050806105c3576040517f08c379a00000000000000000000000000000000000000000000000000000000081526004016105ba90611024565b60405180910390fd5b50505050565b6000819050919050565b6105dc816105c9565b82525050565b60006020820190506105f760008301846105d3565b92915050565b6000604051905090565b600080fd5b600080fd5b61061a816105c9565b811461062557600080fd5b50565b60008135905061063781610611565b92915050565b60006020828403121561065357610652610607565b5b600061066184828501610628565b91505092915050565b600073ffffffffffffffffffffffffffffffffffffffff82169050919050565b60006106958261066a565b9050919050565b6106a58161068a565b82525050565b600081519050919050565b600082825260208201905092915050565b60005b838110156106e55780820151818401526020810190506106ca565b60008484015250505050565b6000601f19601f8301169050919050565b600061070d826106ab565b61071781856106b6565b93506107278185602086016106c7565b610730816106f1565b840191505092915050565b60008115159050919050565b6107508161073b565b82525050565b600060e08201905061076b600083018a61069c565b818103602083015261077d8189610702565b905081810360408301526107918188610702565b90506107a060608301876105d3565b6107ad60808301866105d3565b6107ba60a08301856105d3565b6107c760c0830184610747565b98975050505050505050565b6107dc8161068a565b81146107e757600080fd5b50565b6000813590506107f9816107d3565b92915050565b600080fd5b600080fd5b7f4e487b7100000000000000000000000000000000000000000000000000000000600052604160045260246000fd5b610841826106f1565b810181811067ffffffffffffffff821117156108605761085f610809565b5b80604052505050565b60006108736105fd565b905061087f8282610838565b919050565b600067ffffffffffffffff82111561089f5761089e610809565b5b6108a8826106f1565b9050602081019050919050565b82818337600083830152505050565b60006108d76108d284610884565b610869565b9050828152602081018484840111156108f3576108f2610804565b5b6108fe8482856108b5565b509392505050565b600082601f83011261091b5761091a6107ff565b5b813561092b8482602086016108c4565b91505092915050565b600080600080600060a086880312156109505761094f610607565b5b600061095e888289016107ea565b955050602086013567ffffffffffffffff81111561097f5761097e61060c565b5b61098b88828901610906565b945050604086013567ffffffffffffffff8111156109ac576109ab61060c565b5b6109b888828901610906565b93505060606109c988828901610628565b92505060806109da88828901610628565b9150509295509295909350565b7f4e487b7100000000000000000000000000000000000000000000000000000000600052602260045260246000fd5b60006002820490506001821680610a2e57607f821691505b602082108103610a4157610a406109e7565b5b50919050565b7f546865206475652064617465206d7573742062652073657420666f722061206660008201527f75747572652074696d652e000000000000000000000000000000000000000000602082015250565b6000610aa3602b836106b6565b9150610aae82610a47565b604082019050919050565b60006020820190508181036000830152610ad281610a96565b9050919050565b60008190508160005260206000209050919050565b60006020601f8301049050919050565b600082821b905092915050565b600060088302610b3b7fffffffffffffffffffffffffffffffffffffffffffffffffffffffffffffffff82610afe565b610b458683610afe565b95508019841693508086168417925050509392505050565b6000819050919050565b6000610b82610b7d610b78846105c9565b610b5d565b6105c9565b9050919050565b6000819050919050565b610b9c83610b67565b610bb0610ba882610b89565b848454610b0b565b825550505050565b600090565b610bc5610bb8565b610bd0818484610b93565b505050565b5b81811015610bf457610be9600082610bbd565b600181019050610bd6565b5050565b601f821115610c3957610c0a81610ad9565b610c1384610aee565b81016020851015610c22578190505b610c36610c2e85610aee565b830182610bd5565b50505b505050565b600082821c905092915050565b6000610c5c60001984600802610c3e565b1980831691505092915050565b6000610c758383610c4b565b9150826002028217905092915050565b610c8e826106ab565b67ffffffffffffffff811115610ca757610ca6610809565b5b610cb18254610a16565b610cbc828285610bf8565b600060209050601f831160018114610cef5760008415610cdd578287015190505b610ce78582610c69565b865550610d4f565b601f198416610cfd86610ad9565b60005b82811015610d2557848901518255600182019150602085019450602081019050610d00565b86831015610d425784890151610d3e601f891682610c4b565b8355505b6001600288020188555050505b505050505050565b7f4e487b7100000000000000000000000000000000000000000000000000000000600052601160045260246000fd5b6000610d91826105c9565b91507fffffffffffffffffffffffffffffffffffffffffffffffffffffffffffffffff8203610dc357610dc2610d57565b5b600182019050919050565b6000610dd9826105c9565b9150610de4836105c9565b9250828203905081811115610dfc57610dfb610d57565b5b92915050565b7f4f6e6c79207468652063616d706169676e206f776e65722063616e206265206160008201527f626c6520746f2077697468647261772066756e64730000000000000000000000602082015250565b6000610e5e6035836106b6565b9150610e6982610e02565b604082019050919050565b60006020820190508181036000830152610e8d81610e51565b9050919050565b7f46756e647320616c72656164792077697468647261776e000000000000000000600082015250565b6000610eca6017836106b6565b9150610ed582610e94565b602082019050919050565b60006020820190508181036000830152610ef981610ebd565b9050919050565b7f4e6f2066756e647320746f207769746864726177000000000000000000000000600082015250565b6000610f366014836106b6565b9150610f4182610f00565b602082019050919050565b60006020820190508181036000830152610f6581610f29565b9050919050565b600081905092915050565b50565b6000610f87600083610f6c565b9150610f9282610f77565b600082019050919050565b6000610fa882610f7a565b9150819050919050565b7f4661696c656420746f2073656e642066756e647320746f207468652063616d7060008201527f6169676e206f776e657200000000000000000000000000000000000000000000602082015250565b600061100e602a836106b6565b915061101982610fb2565b604082019050919050565b6000602082019050818103600083015261103d81611001565b905091905056fea264697066735822122016129841bc8570825444f0131d622edf6b48f6de87b0719b778c2a364ce02b0d64736f6c634300081b0033",
  "linkReferences": {},
  "deployedLinkReferences": {}
}